{"abi":[{"type":"constructor","inputs":[],"stateMutability":"nonpayable"},{"type":"function","name":"getBalance","inputs":[],"outputs":[{"name":"","type":"uint256","internalType":"uint256"}],"stateMutability":"view"},{"type":"function","name":"owner","inputs":[],"outputs":[{"name":"","type":"address","internalType":"address"}],"stateMutability":"view"},{"type":"function","name":"tip","inputs":[{"name":"message","type":"string","internalType":"string"}],"outputs":[],"stateMutability":"payable"},{"type":"function","name":"tipsReceived","inputs":[{"name":"","type":"address","internalType":"address"}],"outputs":[{"name":"","type":"uint256","internalType":"uint256"}],"stateMutability":"view"},{"type":"function","name":"totalTips","inputs":[],"outputs":[{"name":"","type":"uint256","internalType":"uint256"}],"stateMutability":"view"},{"type":"function","name":"withdraw","inputs":[{"name":"to","type":"address","internalType":"address payable"}],"outputs":[],"stateMutability":"nonpayable"},{"type":"event","name":"Tipped","inputs":[{"name":"from","type":"address","indexed":true,"internalType":"address"},{"name":"amount","type":"uint256","indexed":false,"internalType":"uint256"},{"name":"message","type":"string","indexed":false,"internalType":"string"}],"anonymous":false},{"type":"event","name":"Withdrawn","inputs":[{"name":"to","type":"address","indexed":true,"internalType":"address"},{"name":"amount","type":"uint256","indexed":false,"internalType":"uint256"}],"anonymous":false}],"bytecode":{"object":"0x6080604052348015600e575f5ffd5b50335f5f6101000a81548173ffffffffffffffffffffffffffffffffffffffff021916908373ffffffffffffffffffffffffffffffffffffffff1602179055506108598061005b5f395ff3fe608060405260043610610054575f3560e01c806312065fe0146100585780632252dc711461008257806351cff8d9146100be5780638da5cb5b146100e6578063990de8ae14610110578063cb56393c1461013a575b5f5ffd5b348015610063575f5ffd5b5061006c610156565b6040516100799190610421565b60405180910390f35b34801561008d575f5ffd5b506100a860048036038101906100a3919061049c565b61015d565b6040516100b59190610421565b60405180910390f35b3480156100c9575f5ffd5b506100e460048036038101906100df9190610502565b610172565b005b3480156100f1575f5ffd5b506100fa6102dc565b604051610107919061053c565b60405180910390f35b34801561011b575f5ffd5b50610124610300565b6040516101319190610421565b60405180910390f35b610154600480360381019061014f91906105b6565b610306565b005b5f47905090565b6001602052805f5260405f205f915090505481565b5f5f9054906101000a900473ffffffffffffffffffffffffffffffffffffffff1673ffffffffffffffffffffffffffffffffffffffff163373ffffffffffffffffffffffffffffffffffffffff1614610200576040517f08c379a00000000000000000000000000000000000000000000000000000000081526004016101f79061065b565b60405180910390fd5b5f4790505f8111610246576040517f08c379a000000000000000000000000000000000000000000000000000000000815260040161023d906106c3565b60405180910390fd5b8173ffffffffffffffffffffffffffffffffffffffff166108fc8290811502906040515f60405180830381858888f19350505050158015610289573d5f5f3e3d5ffd5b508173ffffffffffffffffffffffffffffffffffffffff167f7084f5476618d8e60b11ef0d7d3f06914655adb8793e28ff7f018d4c76d505d5826040516102d09190610421565b60405180910390a25050565b5f5f9054906101000a900473ffffffffffffffffffffffffffffffffffffffff1681565b60025481565b5f3411610348576040517f08c379a000000000000000000000000000000000000000000000000000000000815260040161033f9061072b565b60405180910390fd5b3460015f3373ffffffffffffffffffffffffffffffffffffffff1673ffffffffffffffffffffffffffffffffffffffff1681526020019081526020015f205f8282546103949190610776565b925050819055503460025f8282546103ac9190610776565b925050819055503373ffffffffffffffffffffffffffffffffffffffff167f4f629a5f1c8e7fc616770a8d34896b447f3457037c40a23347478746309d73c23484846040516103fd939291906107f3565b60405180910390a25050565b5f819050919050565b61041b81610409565b82525050565b5f6020820190506104345f830184610412565b92915050565b5f5ffd5b5f5ffd5b5f73ffffffffffffffffffffffffffffffffffffffff82169050919050565b5f61046b82610442565b9050919050565b61047b81610461565b8114610485575f5ffd5b50565b5f8135905061049681610472565b92915050565b5f602082840312156104b1576104b061043a565b5b5f6104be84828501610488565b91505092915050565b5f6104d182610442565b9050919050565b6104e1816104c7565b81146104eb575f5ffd5b50565b5f813590506104fc816104d8565b92915050565b5f602082840312156105175761051661043a565b5b5f610524848285016104ee565b91505092915050565b61053681610461565b82525050565b5f60208201905061054f5f83018461052d565b92915050565b5f5ffd5b5f5ffd5b5f5ffd5b5f5f83601f84011261057657610575610555565b5b8235905067ffffffffffffffff81111561059357610592610559565b5b6020830191508360018202830111156105af576105ae61055d565b5b9250929050565b5f5f602083850312156105cc576105cb61043a565b5b5f83013567ffffffffffffffff8111156105e9576105e861043e565b5b6105f585828601610561565b92509250509250929050565b5f82825260208201905092915050565b7f4e6f74206f776e657200000000000000000000000000000000000000000000005f82015250565b5f610645600983610601565b915061065082610611565b602082019050919050565b5f6020820190508181035f83015261067281610639565b9050919050565b7f4e6f2062616c616e6365000000000000000000000000000000000000000000005f82015250565b5f6106ad600a83610601565b91506106b882610679565b602082019050919050565b5f6020820190508181035f8301526106da816106a1565b9050919050565b7f546970206d757374206265203e203000000000000000000000000000000000005f82015250565b5f610715600f83610601565b9150610720826106e1565b602082019050919050565b5f6020820190508181035f83015261074281610709565b9050919050565b7f4e487b71000000000000000000000000000000000000000000000000000000005f52601160045260245ffd5b5f61078082610409565b915061078b83610409565b92508282019050808211156107a3576107a2610749565b5b92915050565b828183375f83830152505050565b5f601f19601f8301169050919050565b5f6107d28385610601565b93506107df8385846107a9565b6107e8836107b7565b840190509392505050565b5f6040820190506108065f830186610412565b81810360208301526108198184866107c7565b905094935050505056fea26469706673582212209453355d76597501602e63bc2e4713c7fe3ba7437dc122209975c292e88b31d564736f6c634300081e0033","linkReferences":{}},"methodIdentifiers":{"getBalance()":"12065fe0","owner()":"8da5cb5b","tip(string)":"cb56393c","tipsReceived(address)":"2252dc71","totalTips()":"990de8ae","withdraw(address)":"51cff8d9"},"id":20}